:1000000000400020451700007B1700007D1700000E
:100010007F17000081170000831700007917000088
:100020007917000079170000791700008517000084
:100030008717000079170000891700008B17000050
:100040008D1700008F170000911700009317000014
:100050009517000097170000991700009B170000E4
:100060009D1700009F170000A1170000A3170000B4
:10007000A5170000A7170000A9170000AB17000084
:10008000AD170000AF170000B1170000B317000054
:10009000DD140000B7170000B9170000BB170000FF
:1000A000BD170000BF170000C1170000C3170000F4
:1000B000C5170000C7170000000000000000000086
:1000C0000000000000000000000000000000000030
:1000D0000000000000000000000000000000000020
:1000E0000000000000000000000000000000000010
:1000F0000000000000000000000000000000000000
:1001000010B5054C237833B9044B13B10448AFF351
:1001100000800123237010BD4C040020000000006B
:10012000A01B000008B5064B1BB106480649AFF3FB
:1001300000800648036813B1054B03B1984708BD1A
:1001400000000000A01B0000500400204804002014
:1001500000000000154B002B08BF134B9D46A3F574
:10016000803A00218B460F461348144A121A01F0B8
:1001700063FB0F4B002B00D098470E4B002B00D099
:1001800098470020002104000D000D48002802D0EF
:100190000C4801F01DFC01F027FB2000290001F0B4
:1001A000EBF901F011FB00BF000008000040002047
:1001B00000000000000000004C0400207B04002030
:1001C000D1190000DD190000204AD36A03F47053EE
:1001D000B3F5805F35D0B3F5005F04D0B3F5006FA1
:1001E00004D11B4B00E01B4B18687047D36803F425
:1001F000E063B3F5007F16D008D8B3B1B3F5807FC4
:100200001DD1154B154AD86C154B12E0B3F5806F14
:100210001AD0B3F5A06F04D0B3F5407F0FD11148C9
:10022000704711487047114870470B4B104AD86C03
:10023000104BB0F1985F34BF10461846704700204D
:1002400070474FF4004070470B48704700800C40E7
:100250000800002004000020B081E00FC0CF6A0039
:1002600040B56400809FD500003FAB01C0D8A70017
:1002700040420F00804F1200406F400108B5FFF769
:10028000A3FF044B5B6803F00F03D840024B1860D8
:1002900008BD00BF00800C4074040020014B1868AA
:1002A000704700BF08000020044B1860044BDB6A55
:1002B0001B0501D5FFF7E2BF704700BF0800002013
:1002C00000800C4070474FF4004070474FF47A7044
:1002D00070470000014B1868704700BF0400002001
:1002E000044B1860044BDB6A9B0401D5FFF7C6BFC3
:1002F000704700BF0400002000800C40FEE70000B3
:100300000A494B6803F00702032A0CD8DFE802F021
:100310000202070723F0070343F0010303E023F081
:10032000070343F003034B60704700BF00000C401D
:10033000104A10B5104C11490244A2424B680BD828
:1003400003F00702023A012A23F0070394BF43F0A7
:10035000030343F001030BE0094A904208D803F07D
:100360000702023A012A23F0070398BF43F0020371
:100370004B6010BDFFDB0BFFFF23F40000000C40BF
:100380000024F400431EB3F5004F10B5044603D318
:1003900004488721FFF7B2FFB4FA84F4E0B2C0F159
:1003A0001F0010BDD01A0000034B5A6DD20702D4B3
:1003B0001A6D1042FCD1704700800C40012810B526
:1003C000044604D90F4840F27711FFF797FF0E4B10
:1003D0006400986AE04000F00300022807D0032878
:1003E00009D001280BD1BDE81040FFF76CBFBDE874
:1003F0001040FFF76FBFFFF741FF400810BD00201E
:1004000010BD00BFD01A000000800C40B0F5801F66
:1004100038B504460D4604D3144840F2E111FFF705
:100420006DFF042D14D8DFE805F0030507090B0064
:10043000012206E0032204E0002202E0022200E0A2
:1004400004220B4B9A610A4B0822DC615A6206E0D7
:10045000064840F2FB11FFF751FF002038BDDA6A71
:100460005204FCD4024BD86938BD00BFD01A00003A
:1004700000800C40C0F30312013A08B50123032A9F
:1004800038D8DFE802F002050A1F1E4A906801E032
:100490001C4A506800F00F0025E01B4B984208D022
:1004A00003F50433984209D1164B986EC0F303103C
:1004B00018E0144B986E00F00F0013E0134840F260
:1004C000BE211AE0124B984208D003F5043398423B
:1004D0000CD10C4B186FC0F3011003E0094B186FDF
:1004E00000F00300012303FA00F008BD07484FF4B1
:1004F000367102E0054840F2DF21FFF7FFFE0120E0
:1005000008BD00BF00800C4030040800D01A000075
:1005100040051400C0F30313013B10B50C46032B38
:1005200000F29A80DFE803F002152E644B1EB3F54B
:10053000007F04D34C4840F21A31FFF7DFFE20461B
:10054000FFF720FF494B9A6822F00F021043986092
:1005500010BDB1F5007F04D9434840F22231FFF7C6
:10056000CDFEFFF7CDFE2046FFF70CFF3F4B5A684C
:1005700022F00F0210435860FFF780FEBDE81040E4
:10058000FFF7D6BE3A4B984204D003F504339842A5
:1005900014D029E0B1F5004F04D9334840F251316D
:1005A000FFF7ACFE0420FFF7FFFE2046FFF7EAFE50
:1005B0002E4B9A6E22F00F02104313E0B1F5004F5C
:1005C00004D9294840F25F31FFF798FE0420FFF775
:1005D000EBFE2046FFF7D6FE244B9A6E22F0F00287
:1005E00042EA0010986610BD1F4840F28B3136E099
:1005F000204B984204D003F50433984213D027E0EF
:10060000082904D9184840F29531FFF777FE4020B9
:10061000FFF7CAFE2046FFF7B5FE144B1A6F22F013
:100620000302104312E0082904D90F484FF46971FE
:10063000FFF764FE4020FFF7B7FE2046FFF7A2FE5B
:100640000A4B1A6F22F0300242EA0010186710BD00
:10065000054840F2B23102E003484FF46E71BDE844
:100660001040FFF74BBE00BFD01A000000800C40C6
:100670003004080040051400C0F30323013B70B5AB
:100680000D46052B10D8DFE803F016190306090CF8
:100690000023124C14E00123114C11E01023114CE3
:1006A0000EE00023104C0BE0104840F20D41BDE875
:1006B0007040FFF723BE00230D4C01E00D4C0023DA
:1006C000C0F3043613B11846FFF76EFE04F104744C
:1006D00006EBC406B600356070BD00BF40800C401C
:1006E00058800C4060800C4078800C40D01A00008C
:1006F00008800C4044800C4000F00F00013808B521
:1007000003282ED8DFE800F002141E341A4BDB6AEF
:1007100003F47053B3F5805F08D0B3F5005F29D0C0
:10072000B3F5006F0CBF0420052008BD032008BDF1
:10073000114B986A00F0030002281CD003280ED049
:10074000012808E00C4B9B6A03F00C03082B11D026
:100750000C2B04D0042B0CBF0320012008BD062065
:1007600008BD064840F25551FFF7C8FD002008BDFE
:10077000072008BD022008BD00800C40D01A0000F0
:1007800000F47810B0F5202F08B53CD019D8B0F59A
:10079000802F2FD009D8002852D0B0F5003F57D174
:1007A000FFF712FD2F4B9B682AE0B0F5C02F25D034
:1007B000B0F5002F4CD10020FFF700FE294B9B6EB7
:1007C0001EE0B0F5B01F2CD00DD8B0F5901F23D08F
:1007D000B0F5A01F3CD10120FFF7F0FD214B1B6FAE
:1007E00003F0030316E0B0F5C01F22D0B0F5D01F10
:1007F00035D02DE0BDE80840FFF740BD00200CE0FB
:1008000003F00F0306E00020FFF7D8FD154B9B6EA9
:10081000C3F30313D84008BD0120BDE80840FFF72B
:10082000CDBD0120FFF7CAFD0E4B1B6FC3F30113B3
:10083000F0E70D48FFF760FF072810D0082803D124
:10084000BDE80840FFF7C0BC08484FF4B07102E0B3
:10085000064840F2B741FFF751FD002008BD0448AB
:1008600008BD00BF00800C4004001800D01A000032
:10087000809FD500054B30B11A6D002AFCD1034B87
:1008800001225A6570475865704700BF00800C40D0
:10089000024BD868C0F30220704700BF00800C40B4
:1008A00070B5054605281CD8DFE800F00306090EE0
:1008B00012161D4BDC6A0DE01B4BDC6A0EE01A4B76
:1008C000DC6AC4F3074413E0174BDC6A240E0FE024
:1008D000154B1C6BE4B20BE0134B1C6BC4F30724E9
:1008E00006E012484FF4E761BDE87040FFF706BD2F
:1008F0000120FFF701FF0528064601D1FFF700FDA3
:100900000B4A052ED36823F4FF6323F0070343EA61
:10091000052545EA0404D46005D1FFF7AFFCBDE826
:100920007040FFF705BD70BDB081E00FD01A000028
:1009300000800C40024BD868C0F30430704700BF01
:1009400000800C401F2810B5044604D9074840F227
:100950007671FFF7D3FC064B04F01F04DA6822F42B
:10096000F83242EA0434DC6010BD00BFD01A000047
:1009700000800C40002070477047000010B504282C
:100980000FD8DFE800F00906181503001020202317
:1009900013E04020802310E04FF480704FF4007388
:1009A0000BE00C4840F2F671BDE81040FFF7A6BC22
:1009B0000120022301E004200823074C29B1206212
:1009C00022B1E26A1342FCD000E02362BDE810408D
:1009D00000F0A0B9D01A000000800C4010B500F063
:1009E0000F04012C03D055D3032C26D952E0023931
:1009F000032909D8DFE801F00C0F020502200446A4
:100A00000BE00320012408E0264840F2C65144E0F0
:100A10000020042401E00120032401210A46FFF7FD
:100A2000ADFFFFF76DFC204B5C6200F073F9FFF740
:100A300025FCBDE81040FFF77BBC0139052917D81C
:100A4000DFE801F01A030A161611012100200A46F8
:100A5000FFF794FF022310E0012001460246FFF752
:100A60008DFF012309E0114B01221A60032304E0EA
:100A70000C484FF4C26110E000230B4A022C916A2B
:100A80000BBF21F0030121F00C010B4341EA83036A
:100A9000936210BD034840F27261BDE81040FFF759
:100AA0002DBC00BFD01A000000800C400808904305
:100AB000032808B508D0042809D001280BD1094B18
:100AC000186900F07F0008BD064BD86801E0054BAF
:100AD0005869C0B208BD044840F63201FFF70EFC69
:100AE000002008BD00800C40D01A0000032810B57B
:100AF0000C4613D0042820D001282DD17F2904D9F9
:100B0000194840F65201FFF7F9FB184B04F07F0437
:100B10001A6922F07F0214431C6110BDFF2904D919
:100B2000114840F65A01FFF7E9FB104BE4B2DA68CE
:100B300022F0FF021443DC6010BDFF2904D90A48EB
:100B400040F66201FFF7DAFB084BE4B25A6922F083
:100B5000FF0214435C6110BD034840F66A01BDE822
:100B60001040FFF7CBBB00BFD01A000000800C4044
:100B700001280CD006D3022811D10A4B986F00F03F
:100B8000200008E0074B986F00F0020003E0054BDF
:100B9000986F00F00800003018BF01207047002057
:100BA000704700BF00800C40022838B504460D464F
:100BB00004D9044840F6B401FFF7A0FB024BE4005F
:100BC0001D5138BDD01A0000040F90431A4B45F652
:100BD0000E02D3F88400C3F88420184A00F0010004
:100BE000128802F4AA71196202F47051B1F5805FA3
:100BF00006D0B1F5005F08D0B1F5006F10D109E063
:100C0000D96A0906FCD5032108E0D96A8905FCD513
:100C1000042103E0D96A0907FCD50221064B596279
:100C2000D30702D4044B02221A6218B1024B0022ED
:100C3000C3F88420704700BF00800C406804002087
:100C4000094B0A4ADB6A9BB21380094A116941F0D9
:100C50000401116130BF08B1FFF7B8BF5B0501D4D3
:100C6000FFF70CBB704700BF00800C4068040020F9
:100C700000ED00E0134B1449DA6A10B592B20A8015
:100C8000D3F8841045F60E04C907C3F8844048BF62
:100C900000214FF420741C6248BFC3F884100B4B32
:100CA000196941F00401196130BF18B1BDE8104065
:100CB000FFF78CBF530503D4BDE81040FFF7DEBA41
:100CC00010BD00BF00800C406804002000ED00E073
:100CD000074B4AF6E8529A600C2108221A60196004
:100CE0001A6019601A6019601A6019601A607047FA
:100CF00000600C40072810B5044604D903484FF49F
:100D0000B171FFF7FBFA024B5C6010BDE61A000000
:100D100000600C40024BDA6A024B1A80704700BF39
:100D200000800C4068040020032810B5044603D955
:100D300006484D21FFF7E2FA054BD3F8202122F4B3
:100D4000407242EA0424C3F8204110BDFC1A00009E
:100D500000600040052838B505460C4601D8032937
:100D600003D908486321FFF7C9FA2420684300F13A
:100D7000804000F5C040036823F003031C43046077
:100D800038BD00BFFC1A00000528F8B505460C4622
:100D900016461F4601D80F2903D919489621FFF797
:100DA000ADFA072C17490CD8A0000F2383408540CB
:100DB000D1F8002122EA030343EA0500C1F800014B
:100DC0000DE0A4F1080080000F2383408540D1F896
:100DD000042122EA030343EA0500C1F804010A4999
:100DE0000123214403FA04F4064B89000E60C1F884
:100DF0008070C3F81C419DF81830C1F80031F8BD6F
:100E0000FC1A000000600040400883100528F8B577
:100E100005460C4616461F4601D80F2903D922481D
:100E2000CB21FFF76BFA76B101232422A34037B11F
:100E30006A4302F1804202F5C042136103E002FB03
:100E400005F11A4A535024226A43072C02F18042CA
:100E500002F5C0420AD8A3000F21994006FA03F315
:100E6000506820EA01010B4353600CE004F180411B
:100E7000083989000F238B4006FA01F1906820EAB7
:100E80000303194391606EB90122242302FA04F48A
:100E90005D432FB105F1804505F5C0452C61F8BDD6
:100EA000024B5C51F8BD00BFFC1A0000146000400A
:100EB000036BDB0702D4436B1942FCD1704700007F
:100EC00038B50A4B044698420D4601D1012903D991
:100ED00007487F21FFF712FA1DB1012D03D1606988
:100EE00038BD206938BD002038BD00BF0020084053
:100EF000131B00000F4B70B5984204460D46164672
:100F000004D1012902D8130C1B041BB10A48B221D9
:100F1000FFF7F4F915B1012D04D070BD04F11005EF
:100F2000042102E004F1140508212046FFF7C0FF68
:100F30002E6070BD00200840131B000038B5094B1F
:100F4000044698420D4603D00748E121FFF7D6F941
:100F500020460221FFF7ACFF0DB1012300E0022380
:100F6000636038BD00200840131B000029B1436BAB
:100F7000002BFCD10123036370470163704700001D
:100F8000264B70B5984205460C4604D0244840F2E2
:100F90004311FFF7B3F9237843B9AB68DA0705D5F6
:100FA00028460221FFF784FF02236B606378A27852
:100FB000002B14BF4FF4805300230AB143F4806325
:100FC000E2780AB143F4006322790AB143F4007372
:100FD00062790AB143F48073A2790AB143F0400305
:100FE000E2790AB143F08003667A227A360146EA52
:100FF0008206A27A2846164301211E43FFF758FFB6
:1010000023782E6043B1AB68DB0705D42846022164
:10101000FFF74EFF01236B6070BD00BF002008404A
:10102000131B000038B50A4B044698420D4601D107
:10103000012904D9074840F29B11FFF75FF91DB160
:10104000012D03D1E06938BDA06938BD002038BD4D
:1010500000200840131B0000104B70B59842044656
:101060000D46164604D1012902D832F0FF0304D000
:101070000B484FF4E871FFF741F915B1012D04D089
:1010800070BD04F11805102102E004F11C052021B7
:101090002046FFF70DFF2E6070BD00BF0020084006
:1010A000131B0000436B002BFCD1012202631E22A4
:1010B00042601F220360036143618361C361C362B5
:1010C000826203637047000010B5044618B90948EE
:1010D0003E21FFF713F9084B1A6902F03F02227014
:1010E0009A69DB6902F0F002C3F3031313436370E0
:1010F00010BD00BF2D1B0000D0FF0FE008B50A4B4C
:101100005A68013205D109485E21FFF7F7F800203F
:1011100008BD1A68904201D1586808BD044A0833D6
:101120009342EDD1EFE700BF0080E00F2D1B0000E0
:101130009081E00F38B50B4B044698420D460BD01A
:1011400003F58063984207D003F58063984203D08B
:1011500005486521FFF7D2F80DB1012300E0022315
:10116000636038BD00000140461B000038B5234BCA
:10117000054698420C460BD003F58063984207D091
:1011800003F58063984203D01D488521FFF7B6F828
:1011900023780BB902226A6000226A62E278A178A1
:1011A000120442EA0162A1790A43217942EA8122CA
:1011B000617942EA0122617800290CBF00214021B7
:1011C0000A43E17900290CBF002180210A43217ADA
:1011D00000290CBF002120210A43617A00290CBF9D
:1011E000002110210A43A17A00290CBF0021082107
:1011F0000A432A600BB101236B6038BD0000014037
:10120000461B0000244B70B5984205460E46144616
:101210000BD003F58063984207D003F580639842B2
:1012200003D01E48BE21FFF769F8022E03D91B48E0
:10123000BF21FFF763F8637822781B0643EA8263D5
:10124000A27903361343A278360143EA0243E278D7
:1012500043EA0233227943EA8223627943EA022392
:10126000E279002A0CBF00224FF400121343227AC5
:10127000002A0CBF00224FF480121343627A002A26
:101280000CBF002210221343A27A002A0CBF0022B6
:1012900004221343AB5170BD00000140461B000007
:1012A0000A4B10B5984204460BD003F58063984270
:1012B00007D003F58063984203D00548E421FFF787
:1012C0001DF80023C4F8883010BD00BF00000140A5
:1012D000461B0000194B10B5984204460BD003F58D
:1012E0008063984207D003F58063984203D0144886
:1012F000F921FFF703F80223636040F273720023C1
:101300002360E360A2614FF6FF72E2614CF68062F7
:101310002362636223636363E36323646364E3645C
:1013200023656365E365C4F8882023676367A36763
:10133000E3670F23C4F8843010BD00BF00000140F4
:10134000461B00000B4B10B5984204460CD003F529
:101350008063984208D003F58063984204D0064821
:1013600040F22711FEF7CAFF4CF68063C4F88830BC
:1013700010BD00BF00000140461B0000F0B54B4E01
:1013800087B030460121FFF777F9032002210122BF
:101390000023FFF73BFD0320014601220023FFF756
:1013A00035FD434A4FF0FF331360424A3046012176
:1013B000414D1360FFF760F940480121FFF75CF9E8
:1013C0000320012104220023FFF720FD286869681B
:1013D0006B4603C33A4C2989AA7A19809A70002176
:1013E0006A462046FFF70EFFA36A364F43F44033A8
:1013F00043F00103A3623846FFF7C2F949F2CB3349
:10140000B0FBF3F0E0613846FFF7BAF92E4B2A46FD
:10141000B0FBF3F0E06352F80B0F03AB516803C36A
:101420001189927A1980204603A99A70FFF79EFECF
:1014300026480221FFF7D2FA25480121FFF71CF9BF
:1014400024480121FFF718F93046012104F5E4246E
:10145000FFF712F90023062104220320FFF7D6FC30
:101460002046FFF71FFE2046002140F6CC42FFF742
:1014700041FD20460121C422FFF73CFD55F8160F1F
:1014800003AB6968AA7A03C329892046198003A996
:101490009A70FFF775FDE36A4FF4801243F006037C
:1014A000E3620D4B1A6007B0F0BD00BF00C202003E
:1014B000700400206C0400205E1B0000004202004B
:1014C0000000014010810200962701000200060082
:1014D0000023040030140A0000E100E0F8B5204BBE
:1014E000204A1E6A204F16F002060DD00221996292
:1014F0004023D3670320002301210422FFF786FC49
:101500007F0101233B6026E00421996240230121F1
:10151000D2F888500320D2F88840C2F880300A46BA
:101520003346FFF773FC114BC5F380051A687F0142
:101530009542C4F3C0043E6004D0304629461D6085
:1015400000F0DEF80A4B1A68944204D001202146CC
:101550001C6000F0D5F8074B01221A70F8BD00BFDF
:101560000020084000600040780410217004002032
:101570006C0400207A0400204F4B37B51B681B0E0B
:1015800010D14E4B1A6822F070021A60A3F57F53F7
:101590002C3B1A6822F060421A601A6862F060629E
:1015A0001A6001E0032B0BD8454B1A6822F4FC5259
:1015B0001A60444A0023136053609361136293637B
:1015C00001A8FFF781FD9DF80430012B0FD19DF894
:1015D00005302BB93B4B1A6842F002021A6001E059
:1015E000012B04D8384B1A6842F001021A60374BBD
:1015F0001A68374B9A4220D8334B1A6842F490420B
:101600001A60344A106811681568146805F4FE42BF
:1016100004F07F04224301F07F0142EA0141C0F35C
:1016200006202D4A41EA006111602C4A11682C4ABB
:1016300011601A6822F490421A6001210A460020C3
:10164000FFF79CF927480221FFF7C8F92648012136
:10165000FFF712F825480121FFF70EF82448012171
:10166000FFF70AF80020034608210422FFF7CEFB0B
:101670000020034609210422FFF7C8FB00210220B5
:1016800004220B46FFF7C2FBFFF778FE194B1A78CE
:1016900072B9194B1B889BB233B1184B1A6922F0EF
:1016A00004021A6130BFF1E70120FFF7C9FAEDE744
:1016B00000221A70EAE700BFFC81E00F0CA00C408A
:1016C00020600C4040800C4044800C40F081E00FD2
:1016D000FFB98A4CB481E00F34200040C881E00F8C
:1016E0002C4000400200060000230400108102008C
:1016F00000C202007A0400207804002000ED00E01F
:1017000070B500F1080601250C4C59B10F2E04D913
:101710000B484FF4EF71FEF7F1FD05FA06F666612E
:10172000A56570BD0F2E04D9054840F20A21FEF7C9
:10173000E5FD05FA06F62661E56570BD006000402E
:101740007F1B0000074880470749084A084B9B1A3F
:1017500040F30580043BC858D0503FF7FBAF054825
:1017600000470000C5020000AC1B00000000002084
:101770004804002055010000FEE7FEE7FEE7FEE713
:10178000FEE7FEE7FEE7FEE7FEE7FEE7FEE7FEE731
:10179000FEE7FEE7FEE7FEE7FEE7FEE7FEE7FEE721
:1017A000FEE7FEE7FEE7FEE7FEE7FEE7FEE7FEE711
:1017B000FEE7FEE7FEE7FEE7FEE7FEE7FEE7FEE701
:1017C000FEE7FEE7FEE7FEE708B50021044600F06D
:1017D00087F8044B1868C36B03B19847204600F0A4
:1017E00069F900BF9C1B000070B50F4E0F4D761BB2
:1017F000B61007D0043D0024013455F8043F984743
:10180000A642F9D10A4E0B4D00F056F9761BB610E0
:1018100008D0043D0024013455F8043F9847A642FF
:10182000F9D170BD70BD00BF3C0400203C04002015
:10183000440400203C040020F0B4840743D0541E2C
:10184000002A3ED0CDB2034603E0621E002C38D001
:10185000144603F8015B9A07F7D1032C2AD9CDB2BD
:1018600045EA05250F2C45EA054515D9A4F11007D1
:101870003F0903F1100606EB07161A46156055607E
:101880009560D5601032B242F8D104F00F040137F0
:10189000032C03EB07130DD91E462246043A032AF4
:1018A00046F8045BFAD8221F22F0030204321344E4
:1018B00004F003042CB1C9B21C4403F8011BA34279
:1018C000FBD1F0BC704714460346C6E7024B13B188
:1018D000024800F07DB8704700000000DD190000EC
:1018E0002DE9F04F384B85B01B68029003F5A472C8
:1018F00001930F460392019BD3F84881B8F1000F82
:101900001CD0DDF80CB04FF00109DA46D8F80430ED
:101910005C1E11D408F188059E1C05EB830508EBBD
:10192000860677B1EB6FBB420BD0013C631CA5F17F
:101930000405A6F10406F4D1244A7ABB05B0BDE83B
:10194000F08FD8F8042056F8043C013AA24216BFA2
:101950000022C8F8044046F8042C002BE5D009FA10
:1019600004F2D8F88811D8F804B00A4210D0D8F898
:101970008C110A420ED1029855F8041C9847D8F8E9
:1019800004305B45B7D1DAF800304345CDD0B2E73B
:101990009847F4E755F8040C9847F0E7D8F8043076
:1019A0006BB9D8F8003063B14046CAF80030AFF3E5
:1019B0000080DAF80080B8F1000FA7D1BEE7D8F8B0
:1019C0000030C2469846F6E79C1B0000000000006D
:1019D000014600200246034600F018B838B5094D0C
:1019E000094C641BA41018BF05EB840505D0013C0D
:1019F00055F8043D9847002CF9D1BDE8384000F077
:101A000061B800BF4404002048040020F0B5274C12
:101A100085B026680746D6F84841002C40D0656856
:101A20001F2D1EDD224818B94FF0FF3005B0F0BD64
:101A30004FF4C870039102920193AFF300800399B1
:101A40000446029A019B0028EED0D6F848510020A7
:101A5000256060600546C6F84841C4F88801C4F8AE
:101A60008C013FB96B1C00200235636044F82510DF
:101A700005B0F0BD0126AE4004EB8500C0F888201B
:101A8000D4F88821022F42EA0602C4F88821C0F85F
:101A90000831E7D1D4F88C311E43C4F88C61E1E7FA
:101AA00006F5A674C6F84841B9E700BF9C1B0000C4
:101AB00000000000FEE700BFF8B500BFF8BC08BC9E
:101AC0009E467047F8B500BFF8BC08BC9E467047FC
:101AD0002E2E2F656D6C69622F7372632F656D5F9B
:101AE000636D752E63002E2E2F656D6C69622F73EA
:101AF00072632F656D5F656D752E63002E2E2F65E9
:101B00006D6C69622F7372632F656D5F6770696FAB
:101B10002E63002E2E2F656D6C69622F7372632FFA
:101B2000656D5F6C6574696D65722E63002E2E2F76
:101B3000656D6C69622F7372632F656D5F73797366
:101B400074656D2E63002E2E2F656D6C69622F7388
:101B500072632F656D5F74696D65722E630000029C
:101B6000000000010300000000010100000000006F
:101B70000000000001000000010000000300002E32
:101B80002E2F656D6C69622F696E632F656D5F67BF
:101B900070696F2E680000004300000010000020F4
:041BA0000000000041
:081BA400B0E5FF7F0100000025
:101BAC0000000000008000000048E8010000000078
:101BBC0000000000FC02002064030020CC03002085
:101BCC000000000000000000000000000000000009
:101BDC0000000000000000000000000000000000F9
:101BEC0000000000981B0000000000000000000036
:101BFC0000000000000000000000000000000000D9
:101C0C0000000000000000000000000000000000C8
:101C1C0000000000000000000000000000000000B8
:101C2C0000000000000000000000000000000000A8
:101C3C000000000000000000000000000000000098
:101C4C000000000000000000000000000000000088
:101C5C000000000000000000010000000000000077
:101C6C000E33CDAB34126DE6ECDE05000B0000003C
:101C7C000000000000000000000000000000000058
:101C8C000000000000000000000000000000000048
:101C9C000000000000000000000000000000000038
:101CAC000000000000000000000000000000000028
:101FDC00000000000000000010000020CD180000E0
:081FEC002501000001010000C5
:041FF40000000000E9
:04000003000017459D
:00000001FF
